:020000040000FA
:0410000053EF08F0B2
:0E1008005482FACF1FF0FBCF20F09AED13F0C8
:101018005480D8CFE3F0E8CFE4F0E0CFE5F0FACFA2
:10102800E6F0FBCFE7F0E9CFE8F0EACFE9F0E1CF6F
:10103800EAF0E2CFEBF0D9CFECF0DACFEDF0F3CF76
:10104800EEF0F4CFEFF0F6CFF0F0F7CFF1F0F8CF05
:10105800F2F0F5CFF3F0F3C0F5FFF2C0F8FFF1C0FE
:10106800F7FFF0C0F6FFEFC0F4FFEEC0F3FFEDC0EE
:10107800DAFFECC0D9FFEBC0E2FFEAC0E1FFE9C04C
:10108800EAFFE8C0E9FFE7C0FBFFE6C0FAFFE5C0FA
:10109800E0FFE4C0E8FFE3C0D8FF549010001CEF65
:0210A80016F040
:1011000000C6114C118011091109024300020100AF
:10111000C032090400000102020100052400100190
:10112000042402020524060001052401000107052C
:10113000810308000209040100020A0000000705FB
:1011400002024000000705820240000034034D0007
:101150006900630072006F0063006800690070003E
:10116000200054006500630068006E006F006C0092
:101170006F0067007900200049006E0063002E00B8
:1011800034034300440043002000520053002D006C
:10119000320033003200200045006D0075006C0005
:1011A0006100740069006F006E002000440065005B
:1011B0006D006F001201000202000008D8040A004E
:0B11C00000010102000104030904000B
:1011CC0004013205D8A411D0040130511F0B0009C1
:1011DC00D8A40BD00001758F030E04013119D8A4CB
:1011EC0002D0010E01D0000E3A6E04013251D8A487
:1011FC001200040130511F0B020AD8A41200040182
:10120C0034510F0B0009D8B41200040134510F0BE8
:10121C00156E030E15601200200E3F18D8A4120094
:10122C000001758F040134BF1BD0040134510F0B26
:10123C00156E1550020D7E0EF324D96E000EF4209F
:10124C00DA6EDECF19F0DDCF1AF0040134510F0B3A
:10125C00156E1550010D870EF324D96E000E1AD0A1
:10126C00040134510F0B156E1550020D780EF3243A
:10127C00D96E000EF420DA6EDECF19F0DDCF1AF045
:10128C00040134510F0B156E1550010D840EF3240F
:10129C00D96E000EF420DA6EDF50186E18B002D042
:1012AC00199401D01984040134BF0BD004013451BA
:1012BC000F0B156E1550020D7E0EF324D96E000E19
:1012CC000AD0040134510F0B156E1550020D780E17
:1012DC00F324D96E000EF420DA6E19C0DEFF1AC0AA
:1012EC00DDFF030E04013119D8A42FD019C0D9FF8A
:1012FC001AC0DAFFDFAE1CD0040134BF0BD00401DE
:10130C0034510F0B156E1550010D870EF324D96E49
:10131C00000E0AD0040134510F0B156E1550010D3F
:10132C00840EF324D96E000EF420DA6E0001DF82F5
:10133C0019C0D9FF1AC0DAFF000EDB8419C0D9FF1F
:10134C001AC0DAFF000EDB8E1200040E191A19C037
:10135C00D9FF1AC0DAFFDFAE1BD019C0D9FF1AC0F3
:10136C00DAFF7F0EDF1619C0D9FF1AC0DAFF000EA4
:10137C00DB8C000E0E6E050E0D6E19C00FF01AC030
:10138C0010F0000E126E020E116E0CEC15F006D061
:10139C0019C0D9FF1AC0DAFF000EDB8C040E191A23
:1013AC0018B206D019C0D9FF1AC0DAFFDFAE31D09F
:1013BC00040134BF0BD0040134510F0B156E1550C2
:1013CC00010D870EF324D96E000E0AD0040134519E
:1013DC000F0B156E1550010D840EF324D96E000EF3
:1013EC00F420DA6E0001DF9219C0D9FF1AC0DAFFBF
:1013FC003B0EDF16000E0E6E050E0D6E19C00FF0B3
:10140C001AC010F0000E126E020E116E0CEC15F0DC
:10141C0006D019C0D9FF1AC0DAFF3B0EDF16040143
:10142C0034510F0B156E1550010D700EF324166E02
:10143C000F0EF420176E16C0D9FF17C0DAFFFE0E80
:10144C00DF161200A09A0001905100019111D8B43E
:10145C0013D090C0D9FF91C0DAFF0001DFAE04D0E9
:10146C000101476B472B02D00101476B010147512A
:10147C000101486F496B05D0000E0101496F000E48
:10148C00486F0101485101014911D8B402D0A08A1A
:10149C001200030E00019619D8A403D0000E00010F
:1014AC00966F00019651D8A402D0A08A1200020EA9
:1014BC0000019619D8A417D0010E0101406F000E3F
:1014CC000101416F000E0101426F000E0101436FDB
:1014DC00020E78EC10F040C190F041C191F0030E77
:1014EC000001966F71D000019605D8A46DD0400E06
:1014FC000001976504D0400E01014B6F02D097C0DC
:10150C004BF101014B510008000197250001976F29
:10151C00000E00018A6F050E00018B6F4BC14AF162
:10152C0000019451D8B413D02AD08DC0D9FF8EC0ED
:10153C00DAFF8AC0E1FF8BC0E2FFDFCFE7FF0001DB
:10154C008A4B8B2B00018D4B8E2B01014A0701011D
:10155C004A510101D8B418D0E8D78DC0D9FF8EC03C
:10156C00DAFF8AC0E1FF8BC0E2FFDFCFE7FF0001AB
:10157C008A4B8B2B00018D4B8E2B01014A070101ED
:10158C004A510101D8A4E9D700019751D8A40AD037
:10159C00400E01014B19D8A402D0020E01D0030E4B
:1015AC000001966F010E0101406F000E0101416FA9
:1015BC00050E0101426F4BC143F1020E78EC10F0A5
:1015CC0040C190F041C191F0A08A120000019651E7
:1015DC00D8A4A7D0000E0101476F010E0101486F7E
:1015EC00400E0101496F92EC0FF001014E6F000E9D
:1015FC0001014F6F81D0D59E7DD0C282000E486E06
:10160C00000E476E13D048C0D6FF13D001014F51C6
:10161C00010D980EF324D96E000EF420DA6E47C03B
:10162C00DFFF68D0C282000E486E476847C0D7FF04
:10163C00EAD7D58EEBD7818E819C17D001014F5103
:10164C00010D000EF324D96E010EF420DA6E0101A7
:10165C004F51010D980EF324E16E000EF420E26E52
:10166C00DFCFE7FF47D0818E818C819AE7D7818EBF
:10167C00818C818AE3D7819E819C819A01014F5193
:10168C00010D980EF324D96E000EF420DA6E0101D0
:10169C004F51010D000EF324E16E010EF420E26EA9
:1016AC00E75001014D6F01014D29DF6E23D001017F
:1016BC004F51010D000EF324D96E010EF420DA6E99
:1016CC00DF500A0AD8B4B7D7070AD8B4B7D73D0A3F
:1016DC00D8B491D7010AD8B4AED7030AD8B4C3D7BB
:1016EC00010AD8B4C4D70B0AD8B49CD7010AD8B411
:1016FC0084D7C1D701014F2B01014E5101014F5D20
:10170C00D8A0D5D701014E510101D8B40AD0980EFA
:10171C000101406F000E0101416F4EC142F1BAEC64
:10172C0016F028EC0AF01200A09A000E6A6E000E59
:10173C00686E000E706E710E0101406F0F0E01018C
:10174C00416F000E0101436F000E426F000E01014C
:10175C00456F020E446F02EC16F0160E6F6E9F0E64
:10176C006B6E7B0E696E000E0101486F0B0E010152
:10177C00486501D010D001014851040D000EF3242E
:10178C00D96E040EF420DA6EDE6ADE6ADE6ADD6A79
:10179C000101482BEBD76D8C000E6E6E6D986D9C15
:1017AC000CD06896000E0001756F000E00016D6F75
:1017BC00000E00016F6F000E6E6F68B6F2D7010E4F
:1017CC00406E010E416E000E3C6E000E3D6E000E22
:1017DC003B6E000E0101486F020E0101486501D0FD
:1017EC0033D001014851020D780EF324D96E000E4E
:1017FC00F420DA6E000EDE6E000EDD6E0101485133
:10180C00020D7E0EF324D96E000EF420DA6E000E5B
:10181C00DE6E000EDD6E01014851010D840EF324C5
:10182C00D96E000EF420DA6E000EDF6E0101485105
:10183C00010D870EF324D96E000EF420DA6E000E23
:10184C00DF6E0101482BC8D7080E0001786F040E1B
:10185C000001796F160E706E040E0401036F300ECA
:10186C00026F080E0401016F040E0401006F0401E5
:10187C00008F000E526E000E3F6E1200800E04019F
:10188C003019D8A41200C00E0001756F89D0B40EA7
:10189C000001726F110E0001736F000E0001776F63
:1018AC00120E766F120004013251D8A444D00401F8
:1018BC003251020D070EF324F66E110EF420F76E62
:1018CC000900F5CF72F00A00F5CF73F0020E00019B
:1018DC007225016E000E00017321026E01C0F6FF2D
:1018EC0002C0F7FFF86A070EF76403D00800F55042
:1018FC0005D0F6CFE1FFF7CFE2FFE7500001766F9E
:10190C00030E00017225016E000E00017321026EA0
:10191C0001C0F6FF02C0F7FFF86A070EF76403D0A8
:10192C000800F55005D0F6CFE1FFF7CFE2FFE75006
:10193C000001776F1200000E0001756F1200030E8C
:10194C000401326125D004013251020D010EF32441
:10195C00F66E110EF420F76E0900F5CF72F00A0046
:10196C00F5CF73F072C0F6FF73C0F7FFF86A070E7D
:10197C00F76403D00800F55005D0F6CFE1FFF7CFA0
:10198C00E2FFE750016E01500001766F776B120099
:10199C00000E0001756F1200000E0001756F120031
:1019AC0004013351010AD8B472D7030AD8B47BD7D7
:1019BC00010AD8B4C4D7F0D7A09A000E6A6E000EF4
:1019CC00686E000E706E710E016E0F0E026E000EC0
:1019DC00046E000E036E000E066E020E056E7DEC9C
:1019EC0016F0160E6F6E9F0E6B6E7B0E696E000EF0
:1019FC00096E0B0E096401D00ED00950040D000EB7
:101A0C00F324D96E040EF420DA6EDE6ADE6ADE6A26
:101A1C00DD6A092AEED76D8C000E6E6E6D986D9C8A
:101A2C000CD06896000E0001756F000E00016D6FF2
:101A3C00000E00016F6F000E6E6F68B6F2D7010ECC
:101A4C00406E010E416E000E3C6E000E3D6E000E9F
:101A5C003B6E000E096E020E096401D02ED00950A7
:101A6C00020D780EF324D96E000EF420DA6E000EFF
:101A7C00DE6E000EDD6E0950020D7E0EF324D96E63
:101A8C00000EF420DA6E000EDE6E000EDD6E0950D4
:101A9C00010D840EF324D96E000EF420DA6E000EC4
:101AAC00DF6E0950010D870EF324D96E000EF42061
:101ABC00DA6E000EDF6E092ACED7080E0001786FA1
:101ACC00040E0001796F160E706E040E0401036F84
:101ADC00300E026F080E0401016F040E0401006F3A
:101AEC000401008F000E526E000E3F6E12003F0478
:101AFC00D8B46DBA06D0000E686E69806988020E83
:101B0C003F6E68B469A403D0689466EC16F06DA2BD
:101B1C0002D0A19A120068B069A006D0E2EC0CF0D9
:101B2C00A08A040E3F6E689068B869A803D093EC45
:101B3C0016F0689868AC18D069AC0ED0000E0E6E1A
:101B4C00730E0D6E000E0F6E000E106E000E126EE8
:101B5C00010E116E0CEC15F0689C4250D8A4420694
:101B6C004250D8B41DEC12F068BA69AA02D0A7ECA6
:101B7C0015F068B269A20FD07F0E0E6E0D68000EC4
:101B8C000F6E000E106E000E126E010E116E0CEC2C
:101B9C0015F0000E6A6E040E3F6002D0A19A12007E
:101BAC0069A639D0000E1E6E030E1E6401D033D010
:101BBC0068A631D06CCF53F05330E832E8320F0BBB
:101BCC00456E689653B407D04550010D870EF3242B
:101BDC00D96E000E06D04550010D840EF324D96E3B
:101BEC00000EF420DA6E0001DF704550D8A403D04B
:101BFC00B6EC11F00ED0000E0E6E720E0D6E530E72
:101C0C000F6E000E106E000E126E000E116E0CECAC
:101C1C0015F01E2AC9D7A19A120020EE01F03350FC
:101C2C00D9263450DA22DF50026E025000016E5D6C
:101C3C00000E6F59D8A06EC002F0025000016E5F0A
:101C4C00000E6F5B000E016E12D00150010D380EAC
:101C5C00F324D96E040EF420DA6E6AC0E1FF6BC077
:101C6C00E2FFDFCFE7FF00016A4B6B2B012A02502A
:101C7C00015CD8A0EAD700016E5100016F11D8B4F5
:101C8C0032D020EE01F03550D9263650DA22080E2B
:101C9C00DF6E20EE02F03550D9263650DA22380E9F
:101CAC00DE6E040EDD6E33C0D9FF34C0DAFFDFBC4C
:101CBC000DD035C0D9FF36C0DAFF480EDF6E35C007
:101CCC00D9FF36C0DAFF000EDB8E120035C0D9FF0B
:101CDC0036C0DAFF080EDF6E35C0D9FF36C0DAFF2A
:101CEC00000EDB8E120020EE01F03550D926365056
:101CFC00DA22080EDF6E20EE02F03550D92636506F
:101D0C00DA22300EDE6E040EDD6E35C0D9FF36C021
:101D1C00DAFF040EDF6E35C0D9FF36C0DAFF000ED5
:101D2C00DB8E00016D9F3E50D8A412001DEC12F00A
:101D3C0012006D98000175BF39D000016DAF0BD04A
:101D4C00020E436E3D50D8B4ECEC13F0000E416E15
:101D5C00000E406E120020EE01F03550D9263650A0
:101D6C00DA22080EDF6E20EE02F03550D9263650FE
:101D7C00DA22300EDE6E040EDD6E35C0D9FF36C0B1
:101D8C00DAFF0C0EDF6E35C0D9FF36C0DAFF000E5D
:101D9C00DB8E78C0D9FF79C0DAFF040EDF6E78C015
:101DAC00D9FF79C0DAFF000EDB8E1200040130AFD0
:101DBC0010D0010E436E3C50D8B4ECEC13F0000E76
:101DCC00416E000E406E3E50D8A412001DEC12F075
:101DDC001200020E436E20EE01F03550D92636501B
:101DEC00DA22080EDF6E20EE02F03550D92636507E
:101DFC00DA22300EDE6E040EDD6E35C0D9FF36C031
:101E0C00DAFF040EDF6E35C0D9FF36C0DAFF000EE4
:101E1C00DB8E000E416E000E406E3E50D8A41200B8
:101E2C001DEC12F0120004013039E832030B0009EA
:101E3C00D8A412004FD00001758F080E3F6E12000F
:101E4C0044EC0CF0120007EC10F01200520E0001E2
:101E5C00726F000E0001736F00017581010E00019D
:101E6C00766F0001758F1200E0EC12F01200E6ECB8
:101E7C0008F0120004013451010D500EF32400013E
:101E8C00726F000EF4200001736F00017581010E5A
:101E9C000001766F0001758F12000001758F04012F
:101EAC003451010D500EF324D96E000EF420DA6E6D
:101EBC0032C4DFFF1200000E0E6E020E0D6E000E0D
:101ECC000F6E000E106E000E126E000E116E0CECEA
:101EDC0015F0120004013151000AD8B4C5D7010A1B
:101EEC00D8B4C5D7020AD8B4C2D7060AD8B4A3D777
:101EFC00030AD8B4A5D7010AD8B4DDD70F0AD8B4D1
:101F0C00A5D7010AD8B49FD7030AD8B4B3D7010A0E
:101F1C00D8B4C3D7070A1200000E0001956F000158
:101F2C00925100019311D8B413D092C0D9FF93C031
:101F3C00DAFF0001DFAE04D001014A6B4A2B02D05C
:101F4C0001014A6B01014A5101014B6F4C6B05D0E9
:101F5C00000E01014C6F000E4B6F01014B51010142
:101F6C004C11D8A44BD0000120EE01F09251D9268F
:101F7C009351DA2201014951DE5CD8B00AD000013C
:101F8C0020EE01F09251D9269351DA22DF50010153
:101F9C00496F000E0001956F18D000019551010D8D
:101FAC00400EF324D96E050EF420DA6E0001955123
:101FBC00010DF35001014725E16EF4500101482158
:101FCC00E26EDFCFE7FF0001952B010149510001C3
:101FDC00955DD8A0E2D7000E0101406F400E0101C3
:101FEC00416F050E0101426F400E0101436F020E5D
:101FFC0078EC10F040C192F041C193F00001955182
:10200C0012000001758F710E016E0F0E026E000E24
:10201C00046E000E036E000E066E020E056E7DEC55
:10202C0016F0000E016E040E026E000E046E000E11
:10203C00036E000E066E300E056E7DEC16F06D8C88
:10204C00000E156E020E156401D016D01550010D40
:10205C00840EF324D96E000EF420DA6E000EDF6EBF
:10206C001550010D870EF324D96E000EF420DA6E94
:10207C00000EDF6E152AE6D7500E016E000E026EB2
:10208C00000E046E000E036E000E066E020E056E40
:10209C007DEC16F06D9C080E0001786F040E0001AB
:1020AC00796F000E336E040E346E33C035F034C0CD
:1020BC0036F032C452F05250D8A403D0100E3F6EFA
:1020CC001200000E0E6E010E0D6E520E0F6E000EF3
:1020DC00106E000E126E010E116E0CEC15F0200E2F
:1020EC003F6E12000101446F010140510101D8B44F
:1020FC0008D001014451020D780EF324D96E000E64
:10210C0007D001014451020D7E0EF324D96E000E4E
:10211C00F420DA6EDECF45F1DDCF46F101014551F9
:10212C0001014611D8A407D0000E0101406F000E2A
:10213C000101416F1200010120EE02F04551D92638
:10214C004651DA2241C1DEFF42C1DDFF010120EE22
:10215C0001F04551D9264651DA2243C1DFFF45C172
:10216C00D9FF46C1DAFF400EDF1645C1D9FF46C183
:10217C00DAFF000EDB8645C1D9FF46C1DAFF000E3F
:10218C00DB8E010140510101D8B408D0010144514A
:10219C00020D780EF324D96E000E07D001014451C4
:1021AC00020D7E0EF324D96E000EF420DA6E040EAE
:1021BC00DF1A45C140F146C141F11200080E016E13
:1021CC000001775111E1080E0001765DD8B00CD0FA
:1021DC0076C001F04650D8A402D0010E04D04604BB
:1021EC00D8A402D0020E466E01500001765F000E9C
:1021FC00775B000120EE01F07851D9267951DA2273
:10220C0001C0DFFF380E376E040E386E000175A169
:10221C001CD03AD072C0F6FF73C0F7FFF86A37C013
:10222C00D9FF38C0DAFF070EF76403D00800F55069
:10223C0005D0F6CFE1FFF7CFE2FFE750DF6E0001EC
:10224C00724B732B374A382A01060150D8B412004E
:10225C00E1D772C0F6FF73C0F7FFF86A37C0D9FF39
:10226C0038C0DAFF070EF76403D00800F55005D02C
:10227C00F6CFE1FFF7CFE2FFE750DF6E0001724BC4
:10228C00732B374A382A01060150D8B41200E1D713
:10229C00040130511F0BE806D8A412000401303998
:1022AC00E832030BE806D8A4120004013451D8B468
:1022BC0045D004013405D8A4120040D0D80E00013A
:1022CC00726F000E0001736F000E0001776F080E25
:1022DC00766F000175810001758F1200D80E000118
:1022EC00726F000E0001736F0001758F120036C4FF
:1022FC006EF037C46FF0490E00016A6F000E0001DA
:10230C006B6F000E0001706F000E0001716F000109
:10231C006D8F1200490E0001726F000E0001736F79
:10232C00000E0001776F070E766FC10E0001756FFE
:10233C00120032C444F00001758F120004013151B7
:10234C00000AD8B4BBD7010AD8B4C8D7210AD8B46C
:10235C00CED7010AD8B4DED7030AD8A41200E9D725
:10236C002D0E426E53C01BF0FD0E1B16D8A457D079
:10237C0053C01BF0D8901B323F0E1B161B50040D84
:10238C00000EF324336E040EF420346E33C035F09B
:10239C0034C036F0040E351A33C0D9FF34C0DAFF1E
:1023AC00DF30E8320F0B0D0AD8A436D0000E1D6EAC
:1023BC00070E1D6401D023D020EE02F03350D92635
:1023CC003450DA22DECF1BF0DDCF1CF01BC0D9FF5E
:1023DC001CC0DAFF1D50010D300EF324E16E040E0B
:1023EC00F420E26EDFCFE7FF20EE02F03350D92667
:1023FC003450DA22DE2A000EDD221D2AD9D720EE37
:10240C0002F03350D9263450DA22300EDE6E040E30
:10241C00DD6E85EC14F0120079EC15F012005350BF
:10242C00FD0B040AD8A412007FEC12F012004050ED
:10243C00D8A41200010E406E4150D8A41200010E17
:10244C00416E020E4318D8A416D0000120EE01F004
:10245C007851D9267951DA22000EDF6E78C0D9FF77
:10246C0079C0DAFF480EDF6E78C0D9FF79C0DAFF89
:10247C00000EDB8E12004304D8A41200000E396E3D
:10248C0020EE01F03350D9263450DA22080EDF6EDC
:10249C0020EE02F03350D9263450DA22300EDE6EA4
:1024AC00040EDD6E33C0D9FF34C0DAFF040EDF6ECC
:1024BC0033C0D9FF34C0DAFF000EDB8E010E396E4B
:1024CC0020EE01F03550D9263650DA22080EDF6E98
:1024DC0020EE02F03550D9263650DA22300EDE6E60
:1024EC00040EDD6E35C0D9FF36C0DAFF800EDF6E0C
:1024FC00120078C0D9FF79C0DAFF0001000EDFBCF2
:10250C00010E026E040E0001781B080E3F18D8A4B1
:10251C000BD0040132517F0B6E6E6E50D8B402D0CA
:10252C00100E01D0040E3F6E4304D8A43BD0000122
:10253C0020EE02F07851D9267951DA22380EDE6E6F
:10254C00040EDD6EE4EC10F0020E4618D8A40DD08B
:10255C0078C0D9FF79C0DAFF040EDF6E78C0D9FFDE
:10256C0079C0DAFF000EDB8E12000250D8A40DD019
:10257C0078C0D9FF79C0DAFF480EDF6E78C0D9FF7A
:10258C0079C0DAFF000EDB8E120078C0D9FF79C05B
:10259C00DAFF080EDF6E78C0D9FF79C0DAFF000EC3
:1025AC00DB8E120000016DAF02D000016D9F000E9A
:1025BC00436E1200000E0401386F000E0401396FD7
:1025CC003BD00001758F3A04D8A442D00401388363
:1025DC003FD00001758F3CD00001758F040134BFD2
:1025EC000BD0040134510F0B016E0150020D7E0E05
:1025FC00F324D96E000E0AD0040134510F0B016E76
:10260C000150020D780EF324D96E000EF420DA6E10
:10261C00DECF02F0DDCF03F002C0D9FF03C0DAFF3A
:10262C00DFAE16D002C0D9FF03C0DAFFDFA410D092
:10263C00010E0401386F0CD0040130511F0B000A3D
:10264C00D8B4BFD7010AD8B4C4D7030AD8B4C4D7F6
:10265C00000175AF1200380E0001726F040E0001FC
:10266C00736F00017581020E0001766F1200056E0A
:10267C000150D8B407D00550020D780EF324D96E52
:10268C00000E06D00550020D7E0EF324D96E000EFE
:10269C00F420DA6EDECF06F0DDCF07F0065007101F
:1026AC00D8A405D0000E016E000E026E120020EEB2
:1026BC0002F00650D9260750DA2202C0DEFF03C012
:1026CC00DDFF20EE01F00650D9260750DA2204C0B7
:1026DC00DFFF06C0D9FF07C0DAFF400EDF1606C0C9
:1026EC00D9FF07C0DAFF000EDB8606C0D9FF07C092
:1026FC00DAFF000EDB8E0150D8B407D00550020D66
:10270C00780EF324D96E000E06D00550020D7E0E05
:10271C00F324D96E000EF420DA6E040EDF1A06C014
:10272C0001F007C002F012000600E9CF21F0EACF59
:10273C0022F0E1CF23F0E2CF24F0D9CF25F0DACF8D
:10274C0026F0F3CF27F0F4CF28F0F6CF29F0F7CF0F
:10275C002AF0F8CF2BF0F5CF2CF0F2A407D0C282E0
:10276C0047C0D7FF48C0D6FFF29412D09EAC0ED013
:10277C00C4CFE1F0C3CFE2F0E00E016E000E026EAA
:10278C00030E036ECDEC16F09E9C02D07DEC0DF08A
:10279C002CC0F5FF2BC0F8FF2AC0F7FF29C0F6FFAD
:1027AC0028C0F4FF27C0F3FF26C0DAFF25C0D9FFED
:1027BC0024C0E2FF23C0E1FF22C0EAFF21C0E9FFF1
:1027CC0020C0FBFF1FC0FAFF54921100000E3C6E9C
:1027DC00000E3D6E020E4318D8A41FD020EE01F05F
:1027EC003550D9263650DA22080EDF6E20EE02F074
:1027FC003550D9263650DA22380EDE6E040EDD6ED8
:10280C0035C0D9FF36C0DAFF480EDF6E35C0D9FFB0
:10281C0036C0DAFF000EDB8E120000017651040187
:10282C00365D0001775104013759D8B004D036C455
:10283C0076F037C477F0E4EC10F0000120EE02F0F3
:10284C007851D9267951DA22380EDE6E040EDD6EFF
:10285C0078C0D9FF79C0DAFF480EDF6E78C0D9FF97
:10286C0079C0DAFF000EDB8E1200066E000E076ECA
:10287C00040E086E0150026E036AD89002360336BD
:10288C000650046E056AD89004360536D890043686
:10289C0005360250042603500522D890043605361E
:1028AC00D89004360536045007260550082207C078
:1028BC00D9FF08C0DAFFDF9E0150D8A407D006501C
:1028CC00020D7E0EF324D96E000E06D00650020DBA
:1028DC00780EF324D96E000EF420DA6E07C0DEFFFA
:1028EC0008C0DDFF07C0D9FF08C0DAFFDF9C20EE6F
:1028FC0004F00750D9260850DA22DF8C1200000EA3
:10290C00466E000E3E6E000E3C6E000E3D6E000ECE
:10291C00396E000E436E78C0D9FF79C0DAFF7F0E96
:10292C00DF16040E0001781B78C0D9FF79C0DAFFDE
:10293C007F0EDF16040E0001781B35C0D9FF36C0A0
:10294C00DAFF7F0EDF16000E0001756F000E00011E
:10295C00776F000E766F000E00016D6F000E000198
:10296C006F6F000E6E6F19EC0FF0000E0E6E030EF3
:10297C000D6E000E0F6E000E106E000E126E000E1D
:10298C00116E0CEC15F09FEC0EF012006DA236D00F
:10299C00010E02EC17F0120031043210D8A404D04E
:1029AC00010EF1EC16F02FD04B0E31183210D8A4CA
:1029BC0004D0010E02EC17F026D0325004E1970E31
:1029CC00315CD8A020D0000E326E000E316E1BD0C0
:1029DC0031043210D8A404D0010EF1EC16F013D04F
:1029EC00320E31183210D8A404D0010E02EC17F0BC
:1029FC000AD0B70E315C030E3258E3D73F50200A91
:102A0C00D8B4CAD7E5D7314A322A12000FD0CCEC51
:102A1C0014F01200CCEC14F01200CCEC14F01200F8
:102A2C0013EC17F012004EEC11F012000DC013F065
:102A3C000EC014F01450000AD8B404D07F0AD8A4E5
:102A4C0012001AD01350010AD8B4EAD7030AD8B42A
:102A5C001200010AD8B4E7D7060AD8B41200770AD4
:102A6C00D8B41200010AD8B4D2D7070AD8B4D5D733
:102A7C00010AD8A41200CED71350FF0A1200000E80
:102A8C00496E4B0E4A6E000E4B6E000E4C6E000ED5
:102A9C004D6E000E4E6E080E4F6E000E0001956FBF
:102AAC001A0E096E010EC8EC15F01E0E096E020E00
:102ABC00C8EC15F0000E016E400E026E050E036E92
:102ACC00400E046E020E3DEC13F001C092F002C0F9
:102ADC0093F0000E0001906F000E0001916F000E3C
:102AEC000001966F1200020E4318D8A403D013EC09
:102AFC000EF01200000E436E3950D8A41FD020EEF9
:102B0C0001F03550D9263650DA22080EDF6E20EE51
:102B1C0002F03550D9263650DA22300EDE6E040E15
:102B2C00DD6E35C0D9FF36C0DAFF0C0EDF6E35C056
:102B3C00D9FF36C0DAFF000EDB8E1200000E396EA4
:102B4C00120070A01DD033C0D9FF34C0DAFF800E44
:102B5C00DE18D8A414D078C0D9FF79C0DAFF840E5F
:102B6C00DE18D8A40CD033C0D9FF34C0DAFF0C0E59
:102B7C00DF6E33C0D9FF34C0DAFF000EDB8E7090ED
:102B8C00689A12000C6E09A405D0000E016E0C5050
:102B9C003BEC14F009A205D0010E016E0C503BEC7D
:102BAC0014F00C50010D700EF3240A6E0F0EF4206D
:102BBC000B6E0AC0D9FF0BC0DAFF09C0DFFF120091
:102BCC00000E806E010E926E000E816E020E936EE0
:102BDC00070EB46E070ED56E000ED76E000ED66EB5
:102BEC00200EF26E010EC26E000EC16E3E0EC06E55
:102BFC00F28C9D8CF28E120040C146F141C147F11E
:102C0C0009D046C1D9FF47C1DAFF42C1DFFF01013C
:102C1C00464B472B01014407D8A045070101442925
:102C2C00F0E101014529D8B41200EBD701EE00F018
:102C3C00400EEE6AE806FDE100EE60F0830EEE6AEF
:102C4C00E806FDE100EE2DF0270EEE6AE806FDE148
:102C5C0054905492000EF86E000135EF16F0000EF1
:102C6C00486E000E476E010E0001E06F000E000171
:102C7C00E16F000E0001E26F000EE0EC16F09AEC32
:102C8C000BF04EEC16F0E6EC15F0ECEC0AF0FDD780
:102C9C003F50D8A41200000E6D6E000E696E160E19
:102CAC006F6E9F0E6B6E7B0E696ED08EA28AA08AA1
:102CBC00F28E01D06D866DA6FDD7010E3F6E12000F
:102CCC00000E3B6E000E0E6E740E0D6E000E0F6E2F
:102CDC00000E106E000E126E000E116E0CEC15F044
:102CEC006D92699401D0689468A41200FCD701C05D
:102CFC0007F002C008F008D007C0D9FF08C0DAFFFF
:102D0C0003C0DFFF074A082A0506D8A006060528D7
:102D1C00F3E10628D8B41200EFD7698468986D8265
:102D2C00010E3B6E000E0E6E750E0D6E000E0F6ECC
:102D3C00000E106E000E126E000E116E0CEC15F0E3
:102D4C0012000101406F04D0939012009392120074
:102D5C0001014051000AD8B41200010AD8B4F4D7CA
:102D6C00030AD8A41200F2D7A09A00019651D8A455
:102D7C000CD040C18DF041C18EF042C197F0010ED4
:102D8C000001946F010E0001966FA08A1200A09AA8
:102D9C0000019651D8A40CD001C08DF002C08EF069
:102DAC0003C097F0010E0001946F010E0001966FA5
:102DBC00A08A12000101416F04D0010EA7EC16F09D
:102DCC00120001014151000AD8B4F7D7010AD8B456
:102DDC001200030A1200016E04D08A8012008A824B
:102DEC0012000150000AD8B41200010AD8B4F5D769
:102DFC00030AD8A41200F3D7016E04D08A901200F3
:102E0C008A9212000150000AD8B41200010AD8B4F8
:102E1C00F5D7030AD8A41200F3D745EC15F0000E31
:102E2C004D6E080E4F6E000E4E6E800E496E250EC6
:0C2E3C004A6E000E4B6E000E4C6E120031
:00000001FF
