:020000040000fa
:080000000002040000000000f2
:020000040000fa
:0400080004030000ed
:020000040000fa
:04000c0004030000e9
:020000040000fa
:0400100004030000e5
:020000040000fa
:0400140004030000e1
:020000040000fa
:0400180004030000dd
:020000040000fa
:04001c0004030000d9
:020000040000fa
:0400200004030000d5
:020000040000fa
:0400240004030000d1
:020000040000fa
:0400280004030000cd
:020000040000fa
:04002c0004030000c9
:020000040000fa
:0400300004030000c5
:020000040000fa
:0400340004030000c1
:020000040000fa
:0400380004030000bd
:020000040000fa
:04003c0004030000b9
:020000040000fa
:0400400004030000b5
:020000040000fa
:0400440004030000b1
:020000040000fa
:0400480004030000ad
:020000040000fa
:04004c0004030000a9
:020000040000fa
:0400500004030000a5
:020000040000fa
:0400540004030000a1
:020000040000fa
:04005800040300009d
:020000040000fa
:04005c000403000099
:020000040000fa
:040060000403000095
:020000040000fa
:040064000403000091
:020000040000fa
:04006800040300008d
:020000040000fa
:04006c000403000089
:020000040000fa
:040070000403000085
:020000040000fa
:040074000403000081
:020000040000fa
:04007800040300007d
:020000040000fa
:04007c000403000079
:020000040000fa
:040080000403000075
:020000040000fa
:040084000403000071
:020000040000fa
:04008800040300006d
:020000040000fa
:04008c000403000069
:020000040000fa
:040090000403000065
:020000040000fa
:040094000403000061
:020000040000fa
:04009800040300005d
:020000040000fa
:04009c000403000059
:020000040000fa
:0400a0000403000055
:020000040000fa
:0400a4000403000051
:020000040000fa
:0400a800040300004d
:020000040000fa
:0400ac000403000049
:020000040000fa
:0400b0000403000045
:020000040000fa
:0400b4000403000041
:020000040000fa
:0400b800040300003d
:020000040000fa
:0400bc000403000039
:020000040000fa
:0400c0000403000035
:020000040000fa
:0400c4000403000031
:020000040000fa
:0400c800040300002d
:020000040000fa
:0400cc000403000029
:020000040000fa
:0400d0000403000025
:020000040000fa
:0400d4000403000021
:020000040000fa
:0400d800040300001d
:020000040000fa
:0400dc000403000019
:020000040000fa
:0400e0000403000015
:020000040000fa
:0400e4000403000011
:020000040000fa
:0400e800040300000d
:020000040000fa
:0400ec000403000009
:020000040000fa
:0400f0000403000005
:020000040000fa
:0400f4000403000001
:020000040000fa
:0400f80004030000fd
:020000040000fa
:0400fc0004030000f9
:020000040000fa
:0401000004030000f4
:020000040000fa
:0401040004030000f0
:020000040000fa
:0401080004030000ec
:020000040000fa
:04010c0004030000e8
:020000040000fa
:0401100004030000e4
:020000040000fa
:0401140004030000e0
:020000040000fa
:0401180004030000dc
:020000040000fa
:04011c0004030000d8
:020000040000fa
:0401200004030000d4
:020000040000fa
:0401240004030000d0
:020000040000fa
:0401280004030000cc
:020000040000fa
:04012c0004030000c8
:020000040000fa
:0401300004030000c4
:020000040000fa
:0401340004030000c0
:020000040000fa
:0401380004030000bc
:020000040000fa
:04013c0004030000b8
:020000040000fa
:0401400004030000b4
:020000040000fa
:0401440004030000b0
:020000040000fa
:0401480004030000ac
:020000040000fa
:04014c0004030000a8
:020000040000fa
:0401500004030000a4
:020000040000fa
:0401540004030000a0
:020000040000fa
:04015800040300009c
:020000040000fa
:04015c000403000098
:020000040000fa
:040160000403000094
:020000040000fa
:040164000403000090
:020000040000fa
:04016800040300008c
:020000040000fa
:04016c000403000088
:020000040000fa
:040170000403000084
:020000040000fa
:040174000403000080
:020000040000fa
:04017800040300007c
:020000040000fa
:04017c000403000078
:020000040000fa
:040180000403000074
:020000040000fa
:040184000403000070
:020000040000fa
:04018800040300006c
:020000040000fa
:04018c000403000068
:020000040000fa
:040190000403000064
:020000040000fa
:040194000403000060
:020000040000fa
:04019800040300005c
:020000040000fa
:04019c000403000058
:020000040000fa
:0401a0000403000054
:020000040000fa
:0401a4000403000050
:020000040000fa
:0401a800040300004c
:020000040000fa
:0401ac000403000048
:020000040000fa
:0401b0000403000044
:020000040000fa
:0401b4000403000040
:020000040000fa
:0401b800040300003c
:020000040000fa
:0401bc000403000038
:020000040000fa
:0401c0000403000034
:020000040000fa
:0401c4000403000030
:020000040000fa
:0401c800040300002c
:020000040000fa
:0401cc000403000028
:020000040000fa
:0401d0000403000024
:020000040000fa
:0401d4000403000020
:020000040000fa
:0401d800040300001c
:020000040000fa
:0401dc000403000018
:020000040000fa
:0401e0000403000014
:020000040000fa
:0401e4000403000010
:020000040000fa
:0401e800040300000c
:020000040000fa
:0401ec000403000008
:020000040000fa
:0401f0000403000004
:020000040000fa
:0401f4000403000000
:020000040000fa
:0401f80004030000fc
:020000040000fa
:0401fc0004030000f8
:020000040000fa
:0402080004030000eb
:020000040000fa
:04020c0004030000e7
:020000040000fa
:0402100004030000e3
:020000040000fa
:0402140004030000df
:020000040000fa
:0402180004030000db
:020000040000fa
:04021c0004030000d7
:020000040000fa
:0402200004030000d3
:020000040000fa
:0402240004030000cf
:020000040000fa
:0402280004030000cb
:020000040000fa
:04022c0004030000c7
:020000040000fa
:0402300004030000c3
:020000040000fa
:0402340004030000bf
:020000040000fa
:0402380004030000bb
:020000040000fa
:04023c0004030000b7
:020000040000fa
:0402400004030000b3
:020000040000fa
:0402440004030000af
:020000040000fa
:0402480004030000ab
:020000040000fa
:04024c0004030000a7
:020000040000fa
:0402500004030000a3
:020000040000fa
:04025400040300009f
:020000040000fa
:04025800040300009b
:020000040000fa
:04025c000403000097
:020000040000fa
:040260000403000093
:020000040000fa
:04026400040300008f
:020000040000fa
:04026800040300008b
:020000040000fa
:04026c000403000087
:020000040000fa
:040270000403000083
:020000040000fa
:04027400040300007f
:020000040000fa
:04027800040300007b
:020000040000fa
:04027c000403000077
:020000040000fa
:040280000403000073
:020000040000fa
:04028400040300006f
:020000040000fa
:04028800040300006b
:020000040000fa
:04028c000403000067
:020000040000fa
:040290000403000063
:020000040000fa
:04029400040300005f
:020000040000fa
:04029800040300005b
:020000040000fa
:04029c000403000057
:020000040000fa
:0402a0000403000053
:020000040000fa
:0402a400040300004f
:020000040000fa
:0402a800040300004b
:020000040000fa
:0402ac000403000047
:020000040000fa
:0402b0000403000043
:020000040000fa
:0402b400040300003f
:020000040000fa
:0402b800040300003b
:020000040000fa
:0402bc000403000037
:020000040000fa
:0402c0000403000033
:020000040000fa
:0402c400040300002f
:020000040000fa
:0402c800040300002b
:020000040000fa
:0402cc000403000027
:020000040000fa
:0402d0000403000023
:020000040000fa
:0402d400040300001f
:020000040000fa
:0402d800040300001b
:020000040000fa
:0402dc000403000017
:020000040000fa
:0402e0000403000013
:020000040000fa
:0402e400040300000f
:020000040000fa
:0402e800040300000b
:020000040000fa
:0402ec000403000007
:020000040000fa
:0402f0000403000003
:020000040000fa
:0402f40004030000ff
:020000040000fa
:0402f80004030000fb
:020000040000fa
:0402fc0004030000f7
:020000040000fa
:0403000004030000f2
:020000040000fa
:0403040004030000ee
:020000040000fa
:0403080004030000ea
:020000040000fa
:04030c0004030000e6
:020000040000fa
:0403100004030000e2
:020000040000fa
:0403140004030000de
:020000040000fa
:0403180004030000da
:020000040000fa
:04031c0004030000d6
:020000040000fa
:0403200004030000d2
:020000040000fa
:0403240004030000ce
:020000040000fa
:0403280004030000ca
:020000040000fa
:04032c0004030000c6
:020000040000fa
:0403300004030000c2
:020000040000fa
:0403340004030000be
:020000040000fa
:0403380004030000ba
:020000040000fa
:04033c0004030000b6
:020000040000fa
:0403400004030000b2
:020000040000fa
:0403440004030000ae
:020000040000fa
:0403480004030000aa
:020000040000fa
:04034c0004030000a6
:020000040000fa
:0403500004030000a2
:020000040000fa
:04035400040300009e
:020000040000fa
:04035800040300009a
:020000040000fa
:04035c000403000096
:020000040000fa
:040360000403000092
:020000040000fa
:04036400040300008e
:020000040000fa
:04036800040300008a
:020000040000fa
:04036c000403000086
:020000040000fa
:040370000403000082
:020000040000fa
:04037400040300007e
:020000040000fa
:04037800040300007a
:020000040000fa
:04037c000403000076
:020000040000fa
:040380000403000072
:020000040000fa
:04038400040300006e
:020000040000fa
:04038800040300006a
:020000040000fa
:04038c000403000066
:020000040000fa
:040390000403000062
:020000040000fa
:04039400040300005e
:020000040000fa
:04039800040300005a
:020000040000fa
:04039c000403000056
:020000040000fa
:0403a0000403000052
:020000040000fa
:0403a400040300004e
:020000040000fa
:0403a800040300004a
:020000040000fa
:0403ac000403000046
:020000040000fa
:0403b0000403000042
:020000040000fa
:0403b400040300003e
:020000040000fa
:0403b800040300003a
:020000040000fa
:0403bc000403000036
:020000040000fa
:0403c0000403000032
:020000040000fa
:0403c400040300002e
:020000040000fa
:0403c800040300002a
:020000040000fa
:0403cc000403000026
:020000040000fa
:0403d0000403000022
:020000040000fa
:0403d400040300001e
:020000040000fa
:0403d800040300001a
:020000040000fa
:0403dc000403000016
:020000040000fa
:0403e0000403000012
:020000040000fa
:0403e400040300000e
:020000040000fa
:0403e800040300000a
:020000040000fa
:0403ec000403000006
:020000040000fa
:0403f0000403000002
:020000040000fa
:0403f40004030000fe
:020000040000fa
:0403f80004030000fa
:020000040000fa
:0403fc0004030000f6
:020000040000fa
:100400000f8020000e7f22000e01880000000000f7
:10041000000020000000e000020032000001200087
:100420002002880014000700790007000000e000a7
:1004300003003a0000002000010020000200370005
:100440000000200001002000810f70000100320038
:1004500014000700000020000000e000020032004d
:100460000000020000000000b607020000000000cb
:100470000040da000000fe004440a90020002000f7
:100480000000e0000300320010002000900188000e
:100490004440a800000006008a1f78008b1f7800e7
:1004a00000000600a1028800800478000000eb0034
:1004b0001f003700e284440054a0b4009905ba003c
:1004c000e284440054a0b4009906ba00e2844400d7
:1004d00054a0b4000006eb00476fde00fd07b20039
:1004e000ae018800636ce10003003a00eaff0700f8
:1004f0000000eb000e003700606ce10008003a00dd
:10050000004deb000a05e800020039003420ec0041
:100510000af0a0008b05e900f9ff3e000400370057
:100520006168e100010032000086eb000b0007006b
:1005300019c7ba001905ba000e04e00003003a001a
:100540000a00e000dbff3a0000000600fe07b200f0
:10055000ae0288008a047800f5ff37000cd0a300b3
:10056000e20f4d001c00390089027800354dba00b9
:100570000a05e800020039003420ec000af0a0006f
:100580008b05e9000f003200254dba000a05e8008e
:10059000020039003420ec000af0a0008b05e900cd
:1005a000080032000c00e0000600320015cdba0051
:1005b0000a05e800020039003420ec000af0a0002f
:1005c0008b05e9008984e80054a0b4000b00e0002a
:1005d000e2ff3a00000006009902ba00055d7800cb
:1005e0008b05e900f7ff3200c82ade00055d7800c0
:1005f0008b05e900f3ff32000c00e000f1ff320050
:1006000019ddba00eeff37000040da000000fe00fe
:10061000000005000001be00220007000470a700d2
:1006200003f0a1006509b100160032000d0035008d
:100630006828e10006003500f0ff2f00f1ff2700d9
:100640000300e00013003b0001002800000005004b
:1006500000004000818048008502e900fcff3a006c
:1006600008003700f88f420002003c008000eb00d9
:10067000000005008100d1000080d3008502e80061
:10068000fcff3a000300e00002003b0060001000a5
:10069000e0801800000006004f89de00820178002b
:1006a00049003700c70ade00f107b200f50fb200bb
:1006b00008003200e1cf4200020032000170a000c9
:1006c00024000500810f70000100320004080500bd
:1006d00044000500810f700002003a00140005007c
:1006e0008502e9000000400081c04800fcff3b009b
:1006f0000170a00024000500889fbe008a9fbe00f4
:100700008c1f7800950007009c00330003866c0066
:100710006450e100240032006420e1002700320030
:100720006150e100220032006120e100210032002e
:100730008b854200eb07b1000134b800003ab800e5
:100740000804420089844a00013ab8000030b80029
:100750008880400009014a00040033000000400086
:1007600081804800020149008b05e900c909dd00cc
:10077000830170000100320013002000c814de0065
:100780004814dd004709de001200b200c808de0090
:10079000088470004b00070001f0a1000cf0a700d6
:1007a00001f0a0007e0037006120e10080003200ef
:1007b0000801be000200be00f7ff37006150e100f3
:1007c000fcff3a007a003700881f780003047800a5
:1007d0000300e00007003d0060001000e08018000a
:1007e00060011900e081190002003b0001f02d00ba
:1007f000030037000400070008f0a70001f0a00084
:100800004f04780000000600889fbe008a9fbe004b
:100810000082700004027100048271002600320020
:100820000004be000200be006011b8006b09200089
:10083000950220000182cf000a0039000541b10075
:100840000082cf00070039000541b1000982cf00c6
:10085000040039000541b1000882cf0001003900d1
:100860000541b10005425200120032000a003b006f
:1008700082817100610164008100d1000080d30099
:100880008984d3000884d3008b05e8000442e80083
:10089000f7ff3a00070037000804440089844c0041
:1008a00000004800818048008b05e9000442e9000f
:1008b000f9ff3a00030007004f05be004f04be00d9
:1008c0000000060081002000618055000b003d0003
:1008d0000b00200061fe2f000100e1001d0034002c
:1008e00082817100610164008904d1000884d30011
:1008f0000000e800faff3a00710020006100640087
:10090000030070000200600009003200610444002e
:10091000e0844c000988a500050032008b05e80042
:100920006808e10002003a008904d1000884d3007d
:10093000f20f20000258e10005003d00c75ddd0018
:10094000f907b200898075000800780000000600f1
:100950000bf827008b007800000005000004be00a3
:1009600050ff07000003be000405be000200be00e9
:100970004cff0700844f7500000006000200be0017
:100980006450e100050036006420e10002003600fa
:100990000968a30001003a000800be000160a00041
:1009a0004f0678004f05be004f04be000000060051
:0c09b000f0ff2f00f1ff2700f9ff3700d7
:020000040000fa
:1009bc000000fa000600070012002000007122005f
:1009cc00010020005c00070000000000feff370063
:1009dc000000fa00e3c4a900c9c2a900cbc2a80058
:1009ec00e3e4a900c9e2a900cbe2a900ea84a900ca
:1009fc00e882a800ea82a900eaa4a900e8a2a9005a
:100a0c00eaa2a800113a8000f00b200000816000df
:100a1c0060042000710520002374200080497800b8
:100a2c0081497800824978007136800000fc2f00e3
:100a3c00008060009000b30070368800e1368000c2
:100a4c00f00f2c008080600000702000010070000e
:100a5c00e03688004135800000fc2f0000806000eb
:100a6c00a000b3004035880081368000f00f2c00c8
:100a7c000080600000b0a00080368800103a800032
:100a8c00000178000260a0006004200071052000c5
:100a9c0023742000804978008149780082497800cd
:100aac0041e2a9004022a90040c2a9004382a9004a
:100abc004362a9004342a9004322a9004302a800b3
:100acc0042e2a80042c2a80042a2a8001012800074
:100adc00c001b3001012880011128000c0ff2f005b
:100aec00008060001012880045e2a9004402a900b1
:100afc0041e2a8000080fa00000006000400fa00a1
:100b0c002047980040128000004f78002e40900043
:100b1c000080fb00401288000000000000128000e2
:100b2c00610060000000e000fcff320010c0b30068
:100b3c000080fa00000006001600fa00889fbe0034
:100b4c008a9fbe008c9fbe00000f9800110f98006a
:100b5c00220f98002e0890000000e00009003a00d7
:100b6c0010c2b300004f780080c6b3001047980045
:100b7c0000c2b3002047980080c6b30030479800ed
:100b8c000800370010c2b300004f78000040eb00a3
:100b9c001047980000c2b300204798000040eb00bb
:100bac00304798000e0990009e099000900020009c
:100bbc0001002000800f5100818f590004003c007f
:100bcc00a000200001002000000f9800110f9800d9
:100bdc000e0990009e09900000242400f1002000d2
:100bec00800f5100818f5900040034000024240030
:100bfc00f1002000000f9800110f98000e089000d3
:100c0c009e089000a1fe070052f92b0063152400ea
:100c1c00b6fe07007cfe0700000f9800110f98002d
:100c2c000e0990009e099000f0ff2300010028009f
:100c3c00020278000301780080017800010078003e
:100c4c0003026200000061006101b800c011dd0008
:100c5c00020020000200be006121b80002007000fa
:100c6c0083807000e00f5000e08f580008003d00ba
:100c7c0061005000e080580002002c00f3ff2f00b0
:100c8c00020070008380700061004000e08048002a
:100c9c0020079800310798000e0990009e099000db
:100cac002e009000be009000000051008180590081
:100cbc00e00f5000e08f580004003d00f2ff2300cd
:100ccc000300200000004100818049004209dd0042
:100cdc004e06de000c067100ce8ede000c01be004e
:100cec000000240001002000020040008380480026
:100cfc0040079800510798002e019000be0190000b
:100d0c000000240001002000020040008380480005
:100d1c0020079800310798002e019000be0190002a
:100d2c00f00f200001002800020278000301780077
:100d3c00800178000100780003026200000061006d
:100d4c006101b800c011dd00020020000200be00ed
:100d5c006121b8000200700083807000e00f500029
:100d6c00e08f580008003d0061005000e080580002
:100d7c0002f02f00f3ff2f00020070008380700040
:100d8c0061004000e0804800404f98004e489000c1
:100d9c000080fb008000eb002e019000be01900053
:100dac000000510081805900e00f5000e08f580086
:100dbc0002003d00f00fb0000180b0004809dd00da
:100dcc004805de000a057100c88dde000a00be0071
:100ddc00504f98004e019000de019000f00f200063
:100dec0001002800020278000301780080017800dd
:100dfc000100780003026200000061006101b8008c
:100e0c00c011dd00020020000200be006121b8000c
:100e1c000200700083807000e00f5000e08f5800db
:100e2c0008003d0061005000e080580002f02f00e7
:100e3c00f3ff2f00020070008380700061004000ff
:100e4c00e0804800604f98006e4890000080fb00e6
:100e5c008000eb004e019000de019000000051007c
:100e6c0081805900e00f5000e08f580002003d00d7
:100e7c00f00fb0000180b0004809dd004804de002e
:100e8c0008047100c88cde000800be00704f98008a
:100e9c00cbc2a9001e40780018ff07001e4090002e
:100eac0016ff07005e48900014ff07004e489000a4
:100ebc0012ff07007e48900010ff07006e4890005c
:100ecc000eff070000ccb3000cff07000040eb0046
:100edc000aff07002e40900008ff07003e409000dc
:100eec0006ff0700cbc2a8004f06be004f05be0090
:100efc004f04be000080fa00000006000000fa005b
:100f0c00cbc2a90010c2b300fcfe070080c6b30020
:100f1c00fafe070080c5b300f8fe070030c9b30025
:100f2c00f6fe070000c4b300f4fe070000c1b300d6
:100f3c00f2fe070000ccb300f0fe07000040eb000f
:100f4c00eefe07000040eb00ecfe070080c6b3008d
:100f5c00eafe0700cbc2a9000080fa0000000600e0
:100f6c000000fa000500070091fe07001d000700b5
:100f7c000080eb0050168800fcff37000000fa00e0
:100f8c00c822ef00113a8000f0ff280000806000ba
:100f9c0000d0a000103a8800113a8000f08f2f008a
:100fac00008060000090a000103a88004767a900fc
:100fbc0046a7a8005136800000fc2f00008060007e
:100fcc002001b300503688009021ef00810c800086
:100fdc0000c0210001007000800c88000080fa0025
:100fec00000006000600fa000000eb00000f78007d
:100ffc000000eb001007980000012000200798006b
:10100c0010002000501688000000eb00000f780044
:10101c00160037000000eb001007980003003700a3
:10102c001e0090000000e800100798009e00900041
:10103c0070782100808f5000f9ff34002e00900052
:10104c000000e80020079800ae009000001020007f
:10105c00808f5000020036001000200020079800fe
:10106c00ae009000511688001e0fe8007038210069
:10107c009e007800808f5000e6ff3400e2ff3700be
:020000040000fa
:020000040002f8
:04aff0003fd200004c
:020000040000fa
:020000040002f8
:04aff400ffff00005b
:020000040000fa
:020000040002f8
:04aff800befa00009d
:020000040000fa
:020000040002f8
:04affc00bf3f000053
:00000001FF
